:100000000C9434000C9446000C9453000C9446005D
:100010000C9446000C9446000C9446000C94460048
:100020000C9446000C9446000C9446000C94460038
:100030000C9446000C9446000C9446000C94460028
:100040000C9446000C9446000C9446000C94460018
:100050000C9446000C9446000C9446000C94460008
:100060000C9446000C94460011241FBECFEFD8E03C
:10007000DEBFCDBF21E0A0E0B1E001C01D92A23003
:10008000B207E1F70E9448000C947A000C9400003B
:10009000E9E6F0E080818C608083E99A789484B10D
:1000A0008E6F84B9FFCF1F920F920FB60F9211245B
:1000B0002F933F938F939F93809100019091010123
:1000C000892B11F02D9A01C02D98209100013091BB
:1000D000010181E090E0821B930B909301018093DA
:1000E00000019F918F913F912F910F900FBE0F9024
:0800F0001F901895F894FFCF52
:00000001FF
